:0400000007EF00F016
:100008005B82BAED0CF0F6EF0CF06EEC0FF0000E20
:100018003B6E030E376EDFEC0EF0060E5918D8B49F
:1000280032D066EC0DF07C510A0DF3CF2AF0F4CFF4
:100038002BF07D512A26000E2B22F00E2A24336E37
:10004800FD0E2B20346E7F510A0DF3CF2AF0F4CF2A
:100058002BF080512A26000E2B22F00E2A24356E12
:10006800FD0E2B20366E82510A0DF3CF2AF0F4CF05
:100078002BF083512A26000E2B22F00E2A24386EEC
:10008800FD0E2B20396E5904D8A404D03B502FEC18
:100098000CF03ED05950D8A404D03A500DEC06F0DC
:1000A80037D0020E5918D8A403D0B7EC09F030D0D5
:1000B800030E5918D8A403D0AEEC0AF029D0040EC8
:1000C8005918D8A403D02FEC0DF022D0050E5918DA
:1000D800D8A403D016EC09F01BD0060E5918D8A4E2
:1000E80010D033C00FF034C010F035C011F036C056
:1000F80012F038C013F039C014F0375079EC04F01E
:1001080007D0070E5918D8A403D03A509FEC02F034
:10011800040EA6EC0EF001C047F002C048F04750AC
:100128004810D8B422D0AE0E0F6E230E106E410EBA
:10013800116EFF0E4724096EFF0E48200A6E5CEC14
:100148000FF009C00CF00AC00DF00BC00EF03BEC2C
:100158000AF00CC01BF00DC01CF00EC01DF01BEC0B
:100168000BF01BC047F01CC048F0010E596497D132
:10017800070E596094D1000E87EC0EF03A6E0B0E04
:100188003A18D8A403D0454A462A2DD145504610DE
:10019800D8B429D1465004E10B0E455CD8A04DD007
:1001A80046504BE1C80E455CD8B047D0020E5918EE
:1001B800D8A407D05050D8B412D15006010E516EB1
:1001C8000ED1030E5918D8A405D04F50D8B407D172
:1001D8004F0605D1060E5918D8A401D13704D8A462
:1001E8000CD0334A342A0D0E33183410D8A4F7D063
:1001F800000E346E010E336EF2D0020E3718D8A4FA
:100208000CD0354A362A3C0E35183610D8A4E7D01B
:10021800000E366E000E356EE2D0030E3718D8A4E5
:10022800DED0384A392A3C0E38183910D8A4D7D02D
:10023800000E396E000E386ED2D0465004E1C90E59
:10024800455CD8A0CCD0000E016E010E35EC0FF045
:10025800020E5918D8A404D05050030F596EBFD0BD
:10026800060E5918D8A4B5D0800E0D6E000E8FEC6E
:100278000FF038C008F039C009F0000E0B6E0A0EF6
:100288000A6E66EC0EF008C02AF009C02BF00F0EBB
:100298002A1638C001F039C002F0000E046E0A0EAA
:1002A800036ECBEC0DF00138F00B2A100D6E000E2A
:1002B8008FEC0FF035C008F036C009F0000E0B6E59
:1002C8000A0E0A6E66EC0EF008C02AF009C02BF080
:1002D8000F0E2A1635C001F036C002F0000E046E6B
:1002E8000A0E036ECBEC0DF00138F00B2A100D6EE0
:1002F800010E8FEC0FF033C008F034C009F0000E87
:100308000B6E0A0E0A6E66EC0EF008C02AF009C0E1
:100318002BF00F0E2A1633C001F034C002F0000E85
:10032800046E0A0E036ECBEC0DF00138F00B2A10A8
:100338000D6E020E8FEC0FF038C008F039C009F0CE
:10034800000E0B6E0A0E0A6E66EC0EF008C02AF05C
:1003580009C02BF00F0E2A1638C001F039C002F080
:10036800000E046E0A0E036ECBEC0DF00138F00B94
:100378002A107F0B0D6E000E8FEC0FF0000E016E31
:10038800010E35EC0FF0C50E036E2F0E046E800EB5
:10039800056E9BEC0DF0870E036E2F0E046EC20ED9
:1003A800056E9BEC0DF0200E2F6EA10E306E070E21
:1003B800316E000E326E2F06000E305A315A325A04
:1003C8002F28F9E13028F7E13128F5E13228D8A4BF
:1003D800F2D7020E596E000E536E000E4F6E000ECD
:1003E800466E000E456E0C0E3A18D8A405D0000EC5
:1003F800516E434A442A11D643504410D8B40DD6FE
:10040800445004E10B0E435CD8A033D0445031E192
:10041800C80E435CD8B02DD0020E5918D8A405D008
:10042800040E506037D0502A35D0030E5918D8A47E
:1004380015D0FF0E52242A6E2B6AFF0E2B224F5026
:100448002C6E2D6A2A502C5C2D50800A2E6E2B5053
:10045800800A2E58D8B01ED04F2A1CD0060E591824
:10046800D8A418D037063750D8A414D0030E376E46
:1004780011D0445004E1C90E435CD8A00BD0020E41
:10048800596E000E536E000E4F6E000E016E010E77
:1004980035EC0FF0000E446E000E436EBED5010E13
:1004A80087EC0EF03A6E3A04D8A406D0070E3B6EDD
:1004B800070E73EC08F025D0020E3A18D8A40FD016
:1004C800060E3B6002D03B2A06D0070E3B18D8A484
:1004D80002D0010E3B6E3B5073EC08F012D0030EB5
:1004E8003A18D8A40ED0070E3B18D8A403D0010E92
:1004F8003B6E04D0010E3B6401D03B063B5073ECCD
:1005080008F00B0E3A18D8A488D55904D8A485D574
:10051800000E016E010E35EC0FF0000E596E000E44
:100528000001776F000E766F000E736F000E726F0A
:10053800000E3A6E72D51E6E040E4B6063D0460EE6
:10054800036E2F0E046E800E056E9BEC0DF0010EEF
:100558003C26000E3D223E223F223F503E100DE138
:10056800F40E3C5C010E3D58D8B007D04B50C00F7C
:100578000D6E5F0EB9EC0FF018D03F503E100DE134
:10058800200E3C5C030E3D58D8B007D04B50C00F2E
:100598000D6E200EB9EC0FF008D0000E3C6E000E68
:1005A8003D6E000E3E6E000E3F6E0B0E1E18D8A458
:1005B8000ED04B508F0FD96EDA6A310EDF6E4B506A
:1005C800C00F0D6E2A0EB9EC0FF04B2A11D00C0E8D
:1005D8001E18D8A40DD04B508F0FD96EDA6A300E82
:1005E800DF6E4B50C00F0D6E2A0EB9EC0FF0EDD731
:1005F800040E4B18D8A41200000E016E010E35EC43
:100608000FF01200040E4B18D8A412008F0E016EC2
:10061800940E026E1BEC0EF00009D8B442D1040E01
:100628004A6063D0530E036E2F0E046E800E056E63
:100638009BEC0DF0010E3C26000E3D223E223F228F
:100648003F503E100DE1F40E3C5C010E3D58D8B011
:1006580007D04A50C00F0D6E5F0EB9EC0FF018D0DE
:100668003F503E100DE1200E3C5C030E3D58D8B0C3
:1006780007D04A50C00F0D6E200EB9EC0FF008D00D
:10068800000E3C6E000E3D6E000E3E6E000E3F6E7C
:100698000B0E1E18D8A40ED04A50850FD96EDA6AF0
:1006A800310EDF6E4A50C00F0D6E2A0EB9EC0FF0F6
:1006B8004A2A11D00C0E1E18D8A40DD04A50850F06
:1006C800D96EDA6A300EDF6E4A50C00F0D6E2A0EF0
:1006D800B9EC0FF0EDD7040E4A18D8A41200000E9A
:1006E800016E010E35EC0FF01200040E4A18D8A462
:1006F80012004A50850FD96EDA6ADF6A040E496023
:1007080059D0910E036E2E0E046E800E056E9BEC72
:100718000DF0010E3C26000E3D223E223F223F50A6
:100728003E100DE1F40E3C5C010E3D58D8B007D0E8
:100738004950C00F0D6E5F0EB9EC0FF018D03F5046
:100748003E100DE1200E3C5C030E3D58D8B007D09A
:100758004950C00F0D6E200EB9EC0FF008D0000EF6
:100768003C6E000E3D6E000E3E6E000E3F6E0B0E90
:100778001E18D8A40ED049508A0FD96EDA6A310EE5
:10078800DF6E4950C00F0D6E2A0EB9EC0FF0492AE2
:1007980012000C0E1E18D8A4120049508A0FD96EE8
:1007A800DA6A300EDF6E4950C00F0D6E2A0EB9ECB2
:1007B8000FF0EDD7040E4918D8A4120049508A0F3B
:1007C800D96EDA6ADF6A850E016E8A0E026E1BEC3C
:1007D8000EF00009D8B439D0000E016E010E35ECC8
:1007E8000FF0100E036E2F0E046E800E056E9BEC3C
:1007F8000DF0600E036E2F0E046EC20E056E9BEC9C
:100808000DF08A0E116EF4EC0DF0DFEC0EF0200EF8
:10081800126EA10E136E070E146E000E156E1206E0
:10082800000E135A145A155A1228F9E11328F7E141
:100838001428F5E11528D8A4F2D7020E596E000E37
:10084800016E010E35EC0FF01200000E016E010E64
:1008580035EC0FF0E40E036E2E0E046E800E056E5E
:100868009BEC0DF0200E166EA10E176E070E186E7B
:10087800000E196E1606000E175A185A195A16281D
:10088800F9E11728F7E11828F5E11928D8A4F2D7D3
:10089800020E596E000E4B6E000E4A6E000E496E27
:1008A8001200000E016E010E35EC0FF0E40E036E1F
:1008B8002E0E046E800E056E9BEC0DF0200E1A6E47
:1008C800A10E1B6E070E1C6E000E1D6E1A06000E82
:1008D8001B5A1C5A1D5A1A28F9E11B28F7E11C2833
:1008E800F5E11D28D8B4D4D7F1D7156EB30E036E31
:1008F8002F0E046E800E056E9BEC0DF01504D8A427
:1009080041D0C80E0D6E13C001F014C002F0000EE5
:10091800046E0A0E036ECBEC0DF00150300FB9ECEB
:100928000FF0C90E0D6E13C008F014C009F0000EC8
:100938000B6E0A0E0A6E66EC0EF00850300FB9EC1A
:100948000FF0C50E0D6E11C001F012C002F0000EBE
:10095800046E0A0E036ECBEC0DF00150300FB9ECAB
:100968000FF0C60E0D6E11C008F012C009F0000E8F
:100978000B6E0A0E0A6E66EC0EF00850300FB9ECDA
:100988000FF089D0030E1518D8A441D0C50E0D6EEE
:1009980011C001F012C002F0000E046E0A0E036EC0
:1009A800CBEC0DF00150300FB9EC0FF0C60E0D6E08
:1009B80011C008F012C009F0000E0B6E0A0E0A6E84
:1009C80066EC0EF00850300FB9EC0FF0C20E0D6E49
:1009D8000FC001F010C002F0000E046E0A0E036E84
:1009E800CBEC0DF00150300FB9EC0FF0C30E0D6ECB
:1009F8000FC008F010C009F0000E0B6E0A0E0A6E48
:100A080066EC0EF00850300FB9EC0FF044D0020E2F
:100A18001518D8A440D0C20E0D6E0FC001F010C03A
:100A280002F0000E046E0A0E036ECBEC0DF00150BE
:100A3800300FB9EC0FF0C30E0D6E0FC008F010C0E8
:100A480009F0000E0B6E0A0E0A6E66EC0EF00850E6
:100A5800300FB9EC0FF0C80E0D6E13C001F014C0C2
:100A680002F0000E046E0A0E036ECBEC0DF001507E
:100A7800300FB9EC0FF0C90E0D6E13C008F014C09A
:100A880009F0000E0B6E0A0E0A6E66EC0EF00850A6
:100A9800300FB9EC0FF0C40E0D6E3A0EB9EC0FF032
:100AA800C70E0D6E3A0EB9EC0FF0010E000160276B
:100AB800000E6123622363236351621174E1900E77
:100AC800605D010E6159D8B06ED0030E1518D8A418
:100AD80021D0C80E0D6E13C001F014C002F0000E34
:100AE800046E0A0E036ECBEC0DF00150300FB9EC1A
:100AF8000FF0C90E0D6E13C008F014C009F0000EF7
:100B08000B6E0A0E0A6E66EC0EF00850300FB9EC48
:100B18000FF01200020E1518D8A421D0C50E0D6EC4
:100B280011C001F012C002F0000E046E0A0E036E2E
:100B3800CBEC0DF00150300FB9EC0FF0C60E0D6E76
:100B480011C008F012C009F0000E0B6E0A0E0A6EF2
:100B580066EC0EF00850300FB9EC0FF012001504D7
:100B6800D8A41200C20E0D6E0FC001F010C002F022
:100B7800000E046E0A0E036ECBEC0DF00150300F20
:100B8800B9EC0FF0C30E0D6E0FC008F010C009F0DD
:100B9800000E0B6E0A0E0A6E66EC0EF00850300F4F
:100BA800B9EC0FF01200635162112AE1580E605D32
:100BB800020E6159D8B024D01504D8A408D00D0E5F
:100BC800036E2F0E046EC20E056E9BEC0DF0020E26
:100BD8001518D8A408D00D0E036E2F0E046EC50E7E
:100BE800056E9BEC0DF0030E1518D8A412000D0E1F
:100BF800036E2F0E046EC80E056E9BEC0DF01200EE
:100C0800000E606F000E616F000E626F000E636F62
:100C18001200126E040E4C607ED0050E000172198F
:100C28007311D8A415D0000E016E010E35EC0FF02B
:100C3800000E4C6E000E0001776F000E766F010EED
:100C4800596E000E736F000E726F020E586E12000E
:100C5800B30E036E2E0E046E800E056E9BEC0DF027
:100C6800010E00016827000E69236A236B236B516C
:100C78006A110DE1F40E685D010E6959D8B007D00C
:100C88004C50C00F0D6E5F0EB9EC0FF018D06B51C1
:100C98006A110DE1200E685D030E6959D8B007D0BE
:100CA8004C50C00F0D6E200EB9EC0FF008D0000E9E
:100CB800686F000E696F000E6A6F000E6B6F0B0E87
:100CC8001218D8A417D04C508F0FD96EDA6A310E8B
:100CD800DF6E4C50C00F0D6E2A0EB9EC0FF04C2A87
:100CE800000E0001736F000E726F000E776F000E1A
:100CF800766F12000C0E1218D8A412004C508F0FE9
:100D0800D96EDA6A300EDF6E4C50C00F0D6E2A0EA7
:100D1800B9EC0FF0E4D7040E4C18D8A412008F0ECB
:100D2800016E940E026E1BEC0EF00009D8B40AD0C6
:100D3800020E596E5AEC07F0000E016E010E35ECEA
:100D48000FF012005850D8B407D05804D8B404D0C3
:100D5800020E5818D8A440D0010E00016427000ED6
:100D6800652366236723E90E64191FE1030E6519DD
:100D780066116711D8A419D0000E646F000E656F54
:100D8800000E666F000E676F5806000E4C6E000E60
:100D9800776F000E766F000E736F000E726F000E85
:100DA800016E010E35EC0FF01200F30E036E2E0EDD
:100DB800046E800E056E9BEC0DF0C00E0D6E585043
:100DC800300FB9EC0FF0D40E036E2E0E046EC10E68
:100DD800056E9BEC0DF012005450D8A407D0010EFC
:100DE800546E000E0001756F000E746FA20E036E34
:100DF8002E0E046E800E056E9BEC0DF0C20E0D6E6D
:100E080056C008F057C009F0000E0B6E0A0E0A6EA5
:100E180066EC0EF00850300FB9EC0FF0C10E0D6EF5
:100E2800000E046E0A0E036E56C001F057C002F0A1
:100E3800CBEC0DF001C008F002C009F0000E0B6EFB
:100E48000A0E0A6E66EC0EF00850300FB9EC0FF07F
:100E5800C00E0D6E56C001F057C002F0000E046EB1
:100E6800640E036ECBEC0DF00150300FB9EC0FF0AF
:100E78007A0E036E2F0E046EC30E056E9BEC0DF0FA
:100E880056505710D8A41200000E576E780E566EA2
:100E9800010E596E000E546E000E4C6E020E586E06
:100EA800000E016E010E35EC0FF01200000E116EEF
:100EB800000E106E06D1000E0B6E000E0A6E10C0EA
:100EC80001F011C002F0000E046E0D0E036E49EC25
:100ED8000FF0000E0124076E010E0220086E0A5062
:100EE8000724D96E0B500820DA6E535020EC0FF00F
:100EF800DF6E532A0A4A0B2A0BBEE1D70B5004E1D6
:100F0800020E0A5CD8A0DBD710C001F011C002F0B5
:100F1800000E046E0D0E036E49EC0FF0020E012454
:100F2800D96E010E0220DA6E3A0EDF6E000E0D6EDB
:100F3800030E0C6E10C001F011C002F0000E046E1A
:100F48000D0E036E49EC0FF0000E0124076E010E22
:100F58000220086E0C500724D96E0D500820DA6E56
:100F6800535020EC0FF0DF6E532A0C4A0D2A0DBEA9
:100F7800E1D70D5004E1050E0C5CD8A0DBD710C0FA
:100F880001F011C002F0000E046E0D0E036E49EC64
:100F98000FF0050E0124D96E010E0220DA6E3A0E0A
:100FA800DF6E000E0F6E060E0E6E10C001F011C03F
:100FB80002F0000E046E0D0E036E49EC0FF0000EE9
:100FC8000124076E010E0220086E0E500724D96E08
:100FD8000F500820DA6E535020EC0FF0DF6E532AC2
:100FE8000E4A0F2A0FBEE1D70F5004E1080E0E5C1F
:100FF800D8A0DBD710C001F011C002F0000E046EBB
:101008000D0E036E49EC0FF0080E0124D96E010E87
:101018000220DA6E535020EC0FF0DF6E532A10C016
:1010280001F011C002F0000E046E0D0E036E49ECC3
:101038000FF0090E0124D96E010E0220DA6E53500A
:1010480020EC0FF0DF6E532A10C001F011C002F03F
:10105800000E046E0D0E036E49EC0FF00A0E01240B
:10106800D96E010E0220DA6E535020EC0FF0DF6EBD
:10107800532A10C001F011C002F0000E046E0D0ECC
:10108800036E49EC0FF00B0E0124D96E010E0220FD
:10109800DA6E535020EC0FF0DF6E532A10C001F0C7
:1010A80011C002F0000E046E0D0E036E49EC0FF035
:1010B8000C0E0124D96E010E0220DA6EDF6A104A86
:1010C800112A5250076E086A0750105C1150800AA6
:1010D800096E0850800A0958D8B01200ECD6136E71
:1010E8000A0E4D18D8A406D0000E4D6E000E4E6E96
:1010F800000E536E0A0E526001D0522A000E156E71
:10110800000E146E14507C0FD96EDA6ADF500D6E23
:101118004E50C4EC0EF04E2A144A152A15BEF2D7CA
:10112800155004E1020E145CD8A0ECD7000E176E1F
:10113800030E166E16507C0FD96EDA6ADF500D6EEC
:101148004E50C4EC0EF04E2A164A172A17BEF2D794
:10115800175004E1050E165CD8A0ECD7000E196EE6
:10116800060E186E18507C0FD96EDA6ADF500D6EB5
:101178004E50C4EC0EF04E2A184A192A19BEF2D75E
:10118800195004E1080E185CD8A0ECD71350020DD2
:10119800F350990FD96EDA6ADECFF6FFDDCFF7FF8D
:1011A8000800F5CF0DF04E50C4EC0EF04E2A135047
:1011B800020DF350990FD96EDA6ADECF11F0DDCF48
:1011C80012F0010E1126000E122211C0F6FF12C0F5
:1011D800F7FF0800F5CF0DF04E50C4EC0EF04E2A84
:1011E80047C001F048C002F0000E046E0A0E036EFC
:1011F800CBEC0DF001500D6E4E50C4EC0EF04E2AA3
:1012080047C008F048C009F0000E0B6E0A0E0A6EBF
:1012180066EC0EF008500D6E4E50C4EC0EF04E2ADF
:101228004D2A12004D50D8B46AD0000E116E000E2F
:10123800106E57D0000E0F6E000E0E6E10C001F02B
:1012480011C002F0000E046E0D0E036E49EC0FF093
:10125800000E0124076E010E0220086E0E500724AE
:10126800D96E0F500820DA6EDF50E2EC0FF00E4A0C
:101278000F2A0FBEE3D70F5004E10A0E0E5CD8A068
:10128800DDD710C001F011C002F0000E046E0D0E83
:10129800036E49EC0FF00A0E0124D96E010E0220EC
:1012A800DA6EDF50300FE2EC0FF010C001F011C021
:1012B80002F0000E046E0D0E036E49EC0FF00B0EDB
:1012C8000124D96E010E0220DA6EDF50300FE2ECF5
:1012D8000FF08E0E026E2E0E036E0BEC0FF0104AFE
:1012E800112A5250076E086A0750105C1150800A84
:1012F800096E0850800A0958D8B007D09BD77F0ECE
:10130800026E2E0E036E0BEC0FF0000E016E010E36
:1013180035EC0FF0AA0E036E2F0E046E800E056ECC
:101328009BEC0DF0A00E036E2F0E046EC60E056E1C
:101338009BEC0DF0200E0A6EA10E0B6E070E0C6EC4
:10134800000E0D6E0A06000E0B5A0C5A0D5A0A288A
:10135800F9E10B28F7E10C28F5E10D28D8A4F2D71C
:10136800020E596E12005050D8A421D0EC0E036E14
:101378002F0E046E800E056E9BEC0DF00C0E036EA6
:101388002F0E046EC00E056E9BEC0DF0A9C003F085
:10139800AAC004F0830E056E9BEC0DF0ABC003F001
:1013A800ACC004F0C30E056E9BEC0DF0120051505A
:1013B800D8A42DD05050020DF350A70FD96EDA6A79
:1013C800DECF03F0DDCF04F0830E056E9BEC0DF04D
:1013D8005050020DF350A90FD96EDA6ADECF03F030
:1013E800DDCF04F0C30E056E9BEC0DF00C0E036E02
:1013F8002F0E046E800E056E9BEC0DF0D80E036E5A
:101408002F0E046EC00E056E9BEC0DF012005104F9
:10141800D8A412005050020DF350A90FD96EDA6A01
:10142800DECF03F0DDCF04F0830E056E9BEC0DF0EC
:101438005050020DF350AB0FD96EDA6ADECF03F0CD
:10144800DDCF04F0C30E056E9BEC0DF0D80E036ED5
:101458002F0E046E800E056E9BEC0DF00C0E036EC5
:101468002F0E046EC00E056E9BEC0DF012000EC020
:1014780012F0136A146A0D34123601E31380125005
:10148800196E1950D8A407D0000E0C6E000E0D6E00
:10149800000E0E6E120011C012F0136A146A103496
:1014A800123601E3138012501A6E1A50D8A407D0CE
:1014B800000E0C6E000E0D6E000E0E6E1200000E69
:1014C800166E000E176E000E186E1A50890F195EF0
:1014D8000EC01AF011501A1A800E1A160D8EFF0E31
:1014E8000C16FF0E0D16000E0E16108EFF0E0F16A0
:1014F800FF0E1016000E1116180E156ED89016361F
:10150800173618360F500C5C10500D5811500E58E5
:10151800D8A007D00F500C5E10500D5A11500E5A1B
:101528001680D8900C360D360E36152EE7D716C015
:1015380001F017C002F018C003F019C004F01AC077
:1015480005F084EC0BF001C00CF002C00DF003C0F4
:101558000EF01200BC0E036E2F0E046E800E056E88
:101568009BEC0DF05250D8B459D0000E126E000EFC
:10157800116E1150C00F0D6E4F500D0D000EF3245B
:101588000F6E010EF420106E11500F24D96E1250F8
:101598001020DA6EDF50B9EC0FF0114A122A12BE91
:1015A800E8D7125004E1080E115CD8A0E2D7CA0EA1
:1015B8000D6E4F500D0D080EF324D96E010EF42058
:1015C800DA6EDF50B9EC0FF0CB0E0D6E4F500D0DEB
:1015D800090EF324D96E010EF420DA6EDF50B9EC4F
:1015E8000FF0CD0E0D6E4F500D0D0A0EF324D96E6F
:1015F800010EF420DA6EDF50300FB9EC0FF0CE0E8A
:101608000D6E4F500D0D0B0EF324D96E010EF42004
:10161800DA6EDF50300FB9EC0FF01200C40E036E13
:101628002E0E046EC00E056E9BEC0DF012001DC050
:101638001FF0206A216A1C341F3601E320801F50E6
:10164800296E2950D8A409D0000E1B6E000E1C6EFE
:10165800000E1D6E000E1E6E1200170E1F6E1BC0B0
:1016680020F01CC021F01DC022F01F28236E04D0DA
:10167800D890223221322032232EFAD72050246EDD
:101688001C8EFF0E1B16FF0E1C16000E1D161B507F
:10169800256E1C50266E1D50276E286A8E0E295EF8
:1016A80029AE0DD02950800A8F0FD8A0CDD7D89059
:1016B8002832273226322532293EF9D70DD0170E87
:1016C800296407D0C1D7D89025362636273628363C
:1016D80029062950D8A4F7D72450D8B408D0281EF2
:1016E800271E261E256C000E26222722282225C00A
:1016F8001BF026C01CF027C01DF028C01EF01200E9
:101708000450D8B405D0015002100310D8A40CD04E
:10171800000E016E000E026E000E036E1200042A07
:10172800D890033202320132000E0114066E000E08
:101738000214076EFE0E0314086E065007100810F8
:10174800D8B40CD0ECD7042A010E0126000E0222D0
:10175800000E0322D890033202320132000E011427
:10176800066E000E0214076EFF0E0314086E065074
:1017780007100810D8B406D0E6D70406D89001366A
:101788000236033602BE03D0020E0460F6D704A068
:10179800029ED8900432045003120550D8A4038E38
:1017A80001C001F002C002F003C003F01200000EF5
:1017B800956E9450F80B946E8290C30E036ECD0E06
:1017C800E82EFED7032EFCD70000000E016E330E64
:1017D80035EC0FF01B0E036E9E0EE82EFED7032E7F
:1017E800FCD700D0000E016E330E35EC0FF0A60EBC
:1017F800E82EFED700D0000E016E330E35EC0FF048
:1018080000D000D00000000E016E020E35EC0FF083
:10181800A60EE82EFED700D0000E016E380E35EC6D
:101828000FF0A60EE82EFED700D0000E016E010EB6
:1018380035EC0FF0040E036E3E0EE82EFED7032E95
:10184800FCD7000E016E0C0E35EC0FF0A60EE82E3C
:10185800FED700D012000F6ECE0E036E2F0E046E50
:10186800800E056E9BEC0DF0D30E036E2F0E046EEA
:10187800880E056E9BEC0DF0E80E036E2F0E046EBD
:101888008D0E056E9BEC0DF0CE0E0D6E47C008F068
:1018980048C009F0000E0B6E0A0E0A6E66EC0EF0D8
:1018A8000850300FB9EC0FF0CD0E0D6E47C001F0A7
:1018B80048C002F0000E046E0A0E036ECBEC0DF069
:1018C8000150300FB9EC0FF00F50020DF350990F83
:1018D800D96EDA6ADECF03F0DDCF04F0C90E056EEB
:1018E8009BEC0DF07C0E036E046AC00E056E9BEC3B
:1018F8000DF01200819A818C818E81B202D0010E86
:10190800120081B402D0040E120081B602D0070E74
:10191800120081B802D00A0E1200818A819C818E41
:1019280081B202D0020E120081B402D0050E12005C
:1019380081B602D0080E120081B802D00B0E120038
:10194800818A818C819E819E81B202D0030E120011
:1019580081B402D0060E120081B602D0090E120020
:1019680081B802D00C0E1200FF0E120006009EAACB
:1019780005D0ABB2AB92AECF7BF09E9AF2A430D03A
:10198800080ED624D66E000ED720D76E0001764BEF
:10199800772B744B752B080ED624D66E000ED720E5
:1019A800D76E880E74190EE1130E7519D8A40AD0D3
:1019B800000E756F000E746F5450D8B403D05606DD
:1019C800D8A05706880E76190AE1130E7719D8A4FD
:1019D80006D0000E776F000E766F724B732BF29461
:1019E8005B921100580EF66E1F0EF76E000EF86E21
:1019F80000EE99F010EE1AF00900F5CFEEFFE55071
:101A0800E150FAE1160EF66E200EF76E000EF86E33
:101A180000EE56F010EE05F00900F5CFEEFFE550A8
:101A2800E150FAE101EE00F0820EEE6AE806FDE10F
:101A380000EE60F0390EEE6AE806FDE100EE3CF0DB
:101A48001A0EEE6AE806FDE15B905B92000EF86EF6
:101A5800000109EF00F0000E016E010E35EC0FF0E9
:101A6800940E036E2F0E046E800E056E9BEC0DF027
:101A7800600E036E2F0E046EC50E056E9BEC0DF006
:101A8800200E066EA10E076E070E086E000E096E78
:101A98000606000E075A085A095A0628F9E10728C7
:101AA800F7E10828F5E10928D8A4F2D7000E4D6E11
:101AB800000E526E020E596E000E016E010E35ECCC
:101AC8000FF01200020EF6EC0EF0406E010EF6EC6E
:101AD8000EF0416E000EF6EC0EF0426E40AC04D0F3
:101AE80040380F0B010B03D040380F0B030B300F9E
:101AF80000017C6F40500F0B300F7D6F3A0E7E6FE8
:101B080041380F0B0F0B300F7F6F41500F0B300F09
:101B1800806F3A0E816F42380F0B070B300F826FC0
:101B280042500F0B300F836F000E846F1200000EAF
:101B3800016E055035EC0FF016D0010E016E03C092
:101B4800F6FF04C0F7FFF86A050EF76403D0080033
:101B5800F55005D0F6CFE9FFF7CFEAFFEF5035ECA7
:101B68000FF0034A042A03C0F6FF04C0F7FFF86A1F
:101B7800050EF76403D00800F55005D0F6CFE9FF4D
:101B8800F7CFEAFFEF500009D8B41200D6D7000EFD
:101B9800066E000E056E03500410D8B41CD0010E5A
:101BA800076E04D0D89003360436072A04AEFAD755
:101BB800D890053606360350015C04500258D8A068
:101BC80005D00350015E0450025A0580D8900432B3
:101BD8000332072EEDD705C001F006C002F012004F
:101BE8001150D96EDA6ADF500D6E960EC4EC0EF005
:101BF8001150D96EDA6A010ED926DF500D6E970E94
:101C0800C4EC0EF01150D96EDA6A020ED926DF50F4
:101C18000D6E980EC4EC0EF01150D96EDA6A030EF0
:101C2800D926DF500D6E990EC4EC0EF01200000E8E
:101C3800056E1BD002500524D96EDA6A01500524BE
:101C4800E16EE26ADE50E65CD8A00CD001500524B3
:101C5800D96EDA6A02500524E16EE26ADE50E65C6B
:101C6800D8B002D0000E1200052A02500524D96E01
:101C7800DA6ADF50D8A4DED7010E1200000EF6ECA7
:101C88000EF00F6E0F5080090D6E000E8FEC0FF0E6
:101C9800020EF6EC0EF00F6E0F5040090D6E020E9C
:101CA8008FEC0FF0130E0D6E070E8FEC0FF0000E79
:101CB800F6EC0EF00F6E0F507F0B0D6E000E8FECD2
:101CC8000FF012000A500B10D8B418D0010E0C6E89
:101CD80004D0D8900A360B360C2A0BAEFAD70A5025
:101CE800085C0B500958D8A004D00A50085E0B5065
:101CF800095AD8900B320A320C2EF1D708C008F0D6
:101D080009C009F01200016E0104D8A413D07EECBA
:101D18000CF0556E5528D8B407D05A50D8B404D012
:101D2800000E5A6E555012005528D8A409D0010E3D
:101D38005A6E06D00150D8A403D07EEC0CF01200E5
:101D4800FF0E1200076E07C003F0D8900336D89034
:101D58000336C250C30B0310C26EC282C2B2FED792
:101D6800C350C4CF03F0046A03C004F0036A03102D
:101D7800056E0450066E05C001F006C002F01200A0
:101D8800106EF8EC0FF0A00EE8EC0FF01050E8EC35
:101D98000FF00D50E8EC0FF0F4EC0FF00B0E0F6E97
:101DA800B80E0E6E0E06D8A00F060E28FBE10F28FF
:101DB800D8B41200F7D7960E20EC0FF00001946FFC
:101DC800970E20EC0FF00001956F980E20EC0FF0A5
:101DD8000001966F990E20EC0FF00001976F000E2E
:101DE800986F1200026EF8EC0FF0D00EE8EC0FF0CE
:101DF8000250E8EC0FF0FCEC0FF0D10EE8EC0FF01D
:101E0800EEEC0FF0036EF4EC0FF0035012000AD062
:101E180002C0F6FF03C0F7FF0800F550E2EC0FF030
:101E2800024A032A02C0F6FF03C0F7FF0800F55074
:101E38000009D8B41200ECD7026EF8EC0FF0A00E2F
:101E4800E8EC0FF00250E8EC0FF0FCEC0FF0A10EFC
:101E5800E8EC0FF0EEEC0FF0036EF4EC0FF003502B
:101E68001200026E01A002D0828201D0829202C0CA
:101E780083FF82848294958E828082928284829467
:101E880083BEFCD78290959E120001500302F3CFC7
:101E980005F0F4CF06F001500402F3500626025074
:101EA8000302F350062605C001F006C002F0120036
:101EB80009C001F00AC002F0036A8E0E046E000E1B
:101EC800056E84EC0BF001C009F002C00AF003C0F3
:101ED8000BF01200F28EF28CDBEC0BF07FEC0FF0C3
:101EE800D9EC0FF09EEC0FF0C5EC0FF0D0EC0FF032
:101EF80042EC0EF01200C08EC09AC088C096C09006
:101F0800C082C094C292C19AC198000EC46E000EDD
:101F1800C36EC28012000E6EF8EC0FF0D00EE8EC23
:101F28000FF00E50E8EC0FF00D50E8EC0FF0F4EC69
:101F38000FF01200D58CD59AD58ED596D594D5921A
:101F4800D580000ED76E060ED66EF294F28A120075
:101F5800FB2FE02FE42FEF2FF22FF52FF82FDC2F98
:101F68002C2F392F6D2F022F1E2F0E6E000E016E93
:101F78000D5035EC0FF0010E016E0E5035EC0FF0E0
:101F8800120094869488280EC66E310EC86EC79CBF
:101F9800C78E9E96A1961200948E949CAC84AB8EAC
:101FA800AB88810EAF6E9D8A12000F0EC16E1E0E99
:101FB800936EF19E8150E009816E1200016E9EA819
:101FC800FED701C0ADFF1200016E01C0C9FF04ECCD
:101FD80010F0120000EC10F008EC10F0C9501200DC
:101FE800C58404EC10F01200C58004EC10F0120057
:101FF800C58204EC10F01200C58604EC10F0120043
:102008009EA6FED79E961200C58AC5881200780043
:03201800020101C1
:102E7E00004E4F204C4F47204156414941424C4550
:102E8E000A0D00522D454E54455220504153535772
:102E9E004F52440057726F6E672050617373776F95
:102EAE007264202000456E746572205061737377D2
:102EBE006F72642020004E4F204C4F4720415641E8
:102ECE004941424C45002020617474656D707473E5
:102EDE00206C6566740057524F4E47205041535335
:102EEE00574F52440057726F6E672050617373775D
:102EFE006F7264005365742074696D652020202004
:102F0E00200050415353574F5244205345542000F4
:102F1E00436867652050617373776F7264005669FA
:102F2E006577206C6F672020202000436C656172EE
:102F3E00206C6F67202020004F4C4420504153538B
:102F4E00574F5244004E45572050415353574F52FE
:102F5E0044005355434345535346554C4C59004436
:102F6E006F776E6C6F6164206C6F6700202020534A
:102F7E006563204C656674200053756363657373D7
:102F8E0066756C6C79004C4F4720434C4541524559
:102F9E004400434F4D504C4554454400444F574E0A
:102FAE004C4F4144005345545F54494D45005649DA
:102FBE004557204C4F470054696D6520736574006A
:102FCE0054696D650047656172002D3E20004320F7
:102FDE002000474E200047522000537064002D3EC3
:102FEE00004731004732004733004734004F4E0050
:012FFE0000D2
:00000001FF
